:020000040800F2
:10000000980C0024790300085B520008BB4F0008DD
:1000100059520008D30500080967000800000000D5
:1000200000000000000000000000000085570008EC
:10003000510A000800000000E1540008875700083A
:100040009303000893030008930300089303000838
:100050009303000893030008930300089303000828
:10006000930300089303000893030008F5050008B4
:100070009303000893030008930300089303000808
:10008000930300080106000893030008590A0008BA
:10009000650A00089303000893030008930300080F
:1000A00093030008930300089303000893030008D8
:1000B00093030008930300089303000893030008C8
:1000C00093030008930300089303000893030008B8
:1000D00093030008216400089303000893030008B9
:1000E0009303000893030008000000009303000836
:1000F0009303000865590008930300080D060008E3
:100100009303000893030008930300089303000877
:100110009303000893030008930300089303000867
:100120009303000893030008930300089303000857
:100130009303000893030008930300089303000847
:1001400000000000000000000000000000000000AF
:10015000930300089303000893030008FD6600085A
:100160009303000893030008930300089303000817
:100170009303000893030008930300089303000807
:1001800093030008930300089303000893030008F7
:1001900093030008930300089303000893030008E7
:1001A00093030008930300089303000893030008D7
:1001B00093030008930300089303000893030008C7
:1001C00093030008930300089303000893030008B7
:1001D00093030008930300089303000893030008A7
:1001E0009303000893030008930300089303000897
:1001F0009303000893030008930300089303000887
:100200009303000893030008930300089303000876
:100210009303000893030008930300089303000866
:1002200093030008930300089303000800000000F4
:1002300093030008930300080000000093030008E4
:100240009303000893030008930300089303000836
:100250009303000893030008930300089303000826
:100260009303000893030008930300089303000816
:1002700093030008930300089303000800000000A4
:100280009303000893030008930300080000000094
:10029000000000009303000800F002F800F05CF892
:1002A0000AA090E8000C82448344AAF10107DA45D1
:1002B00001D100F051F8AFF2090EBAE80F0013F0C7
:1002C000010F18BFFB1A43F00103184760660000D6
:1002D000806600000A444FF0000C10F8013B13F058
:1002E000070408BF10F8014B1D1108BF10F8015B8F
:1002F000641E05D010F8016B641E01F8016BF9D182
:1003000013F0080F1EBF10F8014BAD1C0C1B09D1D8
:100310006D1E58BF01F801CBFAD505E014F8016B4A
:1003200001F8016B6D1EF9D59142D6D370470000DC
:100330000023002400250026103A28BF78C1FBD8EE
:10034000520728BF30C148BF0B6070471FB506F089
:1003500099FA1FBD10B510BD00F001F91146FFF765
:10036000F5FF06F073FA00F01FF903B4FFF7F2FF90
:1003700003BC00F027F900000948804709480047FE
:10038000FEE7FEE7FEE7FEE7FEE7FEE7FEE7FEE745
:10039000FEE7FEE704480549054A064B70470000A2
:1003A000355800089902000898060024980C00248B
:1003B000980800249808002453EA020C00F0698091
:1003C0002DE9F04B4FF00006002B1FBFB3FA83F569
:1003D00003FA05F424FA05F65E4012BF1643B2FA9A
:1003E00082F502FA05F4C5F120051EBF22FA05FCCC
:1003F00044EA0C04203556EA044C4FEA144418BF72
:10040000641C4FF000084FF00009904271EB030CA0
:1004100039D3002919BFB1FA81F701FA07F6B0FA0A
:1004200080F700FA07F6C7F120071EBF20FA07FC85
:1004300046EA0C062037B6FBF4FCA7EB0507103F95
:1004400007F01F0BCBF120060CFA0BFB2CFA06F67B
:1004500044BFB3460026202FA4BF5E464FF0000BDA
:100460005BEA060C08BF4FF0010B19EB0B09ABFB65
:10047000027C48EB0608C01B06FB02CC0BFB03CC3E
:1004800071EB0C01C1E70B46024641464846BDE808
:10049000F08B13B54FF000004FF00001AFF3008078
:1004A000BDE81C40704710B5203AC0F00B80B1E8A1
:1004B0001850203AA0E81850B1E81850A0E8185099
:1004C000BFF4F5AF5FEA027C24BFB1E81850A0E8A2
:1004D000185044BF18C918C0BDE810405FEA827CBC
:1004E00024BF51F8043B40F8043B08BF7047D207D3
:1004F00028BF31F8023B48BF11F8012B28BF20F874
:10050000023B48BF00F8012B70474FF0000200B5D6
:10051000134694469646203922BFA0E80C50A0E826
:100520000C50B1F12001BFF4F7AF090728BFA0E8D4
:100530000C5048BF0CC05DF804EB890028BF40F8A0
:10054000042B08BF704748BF20F8022B11F0804FE2
:1005500018BF00F8012B7047704770477047754609
:1005600000F02CF8AE4605006946534620F007001F
:10057000854618B020B5FFF70DFFBDE820404FF0CD
:1005800000064FF000074FF000084FF0000B21F07D
:100590000701AC46ACE8C009ACE8C009ACE8C0094A
:1005A000ACE8C0098D46704710B50446AFF3008033
:1005B0002046BDE81040FFF7D8BE00000048704755
:1005C0003406002401491820ABBEFEE726000200D5
:1005D0007047FEE710B504F04BFD054800220121ED
:1005E00001F060FDBDE81040014802F09CBA000037
:1005F00020020024014800F0ADBE00002C040024BD
:10060000014800F0A7BE0000A4040024014800F047
:10061000A1BE00001C050024294A016891423AD07D
:10062000274A1832914236D0254A3032914232D090
:10063000234A483291422ED0214A603291422AD038
:100640001F4A7832914226D01D4A9032914222D0E0
:100650001B4AA83291421ED01A4A91421BD0194A15
:100660001832914217D0174A3032914213D0154AAE
:10067000483291420FD0134A603291420BD0114A56
:100680007832914207D00F4A9032914203D00D4AFE
:10069000A832914211D1CAB21823103AB2FBF3F238
:1006A0006FF30901032A02F00703074AD25CC2650F
:1006B00000D9091D81650846704721F0FF01F9E75F
:1006C0001000024010040240EC68000830B5224AD5
:1006D000012301689142CAB21BD01F4C1434A142BD
:1006E00017D01D4C2834A14213D01B4C3C34A142DE
:1006F0000FD0194C5034A1420BD0174C6434A14296
:1007000007D0154C7834A14203D0134C8C34A1424D
:100710000CD11421114C083AB2FBF1F10F4A80328E
:1007200001F01F0504EB8101AB4010E00C4D1824D3
:10073000103A0D44B2FBF4F1A82D00D80831094A53
:1007400001F01F0402EB8101064AA34080326030B1
:1007500080E80E0030BD00000854025800580258CE
:10076000F0FBFDBF0008024010B50279531E072BB5
:100770002DD8174C0168A1421BD0154C1434A1424E
:1007800017D0134C2834A14213D0114C3C34A14251
:100790000FD00F4C5034A1420BD00D4C6434A14209
:1007A00007D00B4C7834A14203D0094C8C34A142C1
:1007B00003D10849074C443102E00749064C443153
:1007C00004EB8202C0E91B2101219940416710BD61
:1007D00008540258FC580258FC08024010B58369BE
:1007E0004FF0C074826A0146002053B1B3F5005F38
:1007F00015D072B1012A0CD0022A0AD0032A09D1DD
:1008000004E01AB1012A06D0022A03D1C96AC9013B
:1008100000D5012010BDC96AA142FAD010BD002A3E
:10082000F7D0012AF2D0022AF3D0032AF3D010BD68
:100830002DE9F04F804E804FDFF8FC911836DFF83D
:10084000F8A148370468856D0AF1300ADFF8ECB189
:100850004C45DFF8ECC1DFF8ECE16DD0B4426BD071
:10086000544569D0BC4267D0DFF8D081A8F11808A0
:10087000444561D05C455FD064455DD074455BD034
:10088000DFF8C481444557D0DFF8BC8108F118086F
:10089000444551D0DFF8B08108F1300844454BD0D1
:1008A000DFF8A48108F14808444545D0DFF8988175
:1008B00008F1600844453FD0DFF88C8108F17808E2
:1008C000444539D0DFF8808108F19008444533D0A1
:1008D000DFF8748108F1A80844452DD0DFF86C8159
:1008E000444529D0DFF8648108F11408444523D039
:1008F000DFF8588108F1280844451DD0DFF84C8105
:1009000008F13C08444517D0DFF8408108F1500851
:10091000444511D0DFF8348108F1640844450BD018
:10092000DFF8288108F17808444505D0DFF81C81FC
:1009300008F18C08444509D1D0E91948C4F804806D
:10094000C46E1CB1D0E91C48C4F8048004684C454E
:100950002ED0B4422CD054452AD0BC4228D0374E99
:10096000183EB44224D05C4522D0644520D0744562
:100970001ED0354EB4421BD0334E1836B44217D079
:10098000314E3036B44213D02F4E4836B4420FD0D9
:100990002D4E6036B4420BD02B4E7836B44207D081
:1009A000294E9036B44203D0274EA836B44215D112
:1009B00090F85C603F2406F01F06B440AC60046809
:1009C000256825F4802525602EE09A600068C160C6
:1009D000BDE8F08F99600068C260F9E71B4EB44231
:1009E0001BD01A4E1436B44217D0184E2836B442D3
:1009F00013D0164E3C36B4420FD0144E5036B4428B
:100A00000BD0124E6436B44207D0104E7836B44242
:100A100003D00E4E8C36B442DAD190F85C600124DB
:100A200006F01F06B4406C60046863608368402B66
:100A30000368CFD1C9E700001000024088000240DF
:100A4000A0000240B80002401004024008540258BE
:100A5000704772B6FEE70000014801F0A9BC000033
:100A600080010024014801F0A3BC00002002002402
:100A700000B58BB000214FF400720A9193020991E6
:100A8000CDE90021049109AACDE90213059106914F
:100A90000791089190ED000ABDEEC00A10EE101A01
:100AA00009128DF8241090ED000ABDEEC00A10EE78
:100AB000101A8DF8251090ED010ABDEEC00A10EE57
:100AC000101A09128DF8261090ED010ABDEEC00A29
:100AD00010EE101A8DF8271090ED020ABDEEC00A34
:100AE00010EE101A09128DF8281090ED020ABDEED2
:100AF000C00A10EE101A8DF8291090ED030ABDEE11
:100B0000C00A10EE101A09128DF82A1090ED030A8F
:100B10006946BDEEC00A10EE100A8DF82B0003489E
:100B200001F004FB0BB0002000BD000020020024F7
:100B3000F0B503684FF6FC716D4C426BD3F88450EE
:100B40008D4345EA8205C3F88450036853F8845FF7
:100B5000068F25F47F0545EA06451D60836B654DCC
:100B60009F180268D2F888308B4343EA8703C2F8A3
:100B70008830026852F8883F868F23F4FE0343EAE8
:100B800006431360066856F8A03FC26B8B4307EB21
:100B9000420243EA82033360076857F8A03FB0F887
:100BA000406023F4FE0343EA06433B60D0E910367D
:100BB00003FB06220368D3F8B0608E4346EA820640
:100BC000C3F8B0600368B0F84860D3F8B07027F499
:100BD000FE0747EA0646C3F8B060D0E9126703682B
:100BE00006FB0722D3F8AC608E4346EA8206C3F8C0
:100BF000AC60D0E91467036806FB0722D3F8F06005
:100C00008E4346EA8206C3F8F0600368B0F8586085
:100C1000D3F8F07027F47C1747EA0646C3F8F06073
:100C20000368876D53F8C06F02EB47028E4346EAB4
:100C3000820119600168B0F85C20D1F8C03023F45B
:100C40007C1343EA0242C1F8C020016890F860209A
:100C5000D1F8C03023F07C5343EA0262C1F8C020CF
:100C6000416B04EB8101C166826B01EB820202677A
:100C7000C36B02EBC3024267D0E91034634302EB5B
:100C800083028267D0E91234634302EB8302C267B6
:100C9000D0E91434634302EB8302C0F88020836DF3
:100CA00002EBC303C0F88430C46D826E544303EB7F
:100CB0008403C0F88830046E544303EB8402C0F808
:100CC0009020AA420AD9D0F89C20032142F02002A9
:100CD000C0F89C2080F898100120F0BD002200E0B0
:100CE00004C1D0F890308B42FAD80020F0BD00004B
:100CF00000AC0040FCD30040F0B58E680C69D1E92F
:100D0000005744EA0604DFB145F080452C43866E67
:100D1000D1E906C54F695E4391F8203045EA0C05DC
:100D2000D0F884E00020D1F80CC047EA03630D4FEF
:100D30001D430EEB860345EA0C05E3E802450AE095
:100D400044EA8544E3E71418155C001DD4F801401B
:100D500045EA042410C3CC6807EB14442478844289
:100D6000F1D8F0BD906800082DE9F84F044602F074
:100D70001BF8002C009008D094F83500022805D00C
:100D800080216165002084F83400E3E0C84DC84E3E
:100D9000C749183520683036DFF81883DFF8189314
:100DA0008842DFF818A3DFF818B32ED0A8422CD061
:100DB000B0422AD0404528D0484526D0504524D0BE
:100DC000584522D0BE4A183290421ED0BD4A9042A9
:100DD0001BD0BC4A1832904217D0BA4A30329042E7
:100DE00013D0B84A483290420FD0B64A603290428F
:100DF0000BD0B44A7832904207D0B24A9032904237
:100E000003D0B04AA832904209D1026822F01E02F3
:100E100002602068426922F08002426103E00268B9
:100E200022F00E02026027688F4238464DD0A84259
:100E30004BD0B04249D0404547D0484545D05045B9
:100E400043D0584541D09E4A183290423DD09D4AE9
:100E500090423AD09B4A1832904236D0994A30326A
:100E6000904232D0974A483290422ED0954A603212
:100E700090422AD0934A7832904226D0914A9032BA
:100E8000904222D08F4AA83290421ED08E4A904281
:100E90001BD08D4A1432904217D08B4A2832904290
:100EA00013D0894A3C3290420FD0874A5032904248
:100EB0000BD0854A6432904207D0834A7832904200
:100EC00003D0814A8C32974204D1206E026822F40A
:100ED0008072026076492068884228D0A84226D0D5
:100EE000B04224D0404522D0484520D050451ED0A5
:100EF00058451CD072491831884218D0714988422F
:100F000015D070491831884211D06E49303188426D
:100F10000DD06C494831884209D06A496031884215
:100F200005D068497831884201D06649903101681E
:100F300021F00101016010E001F036FF0099401A34
:100F400005280AD9202262650020032184F8340094
:100F500084F835100120BDE8F88F3868C007EBD160
:100F6000534A0121206890422ED0A8422CD0B04292
:100F70002AD0404528D0484526D0504524D0584551
:100F800022D04F4B183398421ED04E4B98421BD064
:100F90004C4B1833984217D04A4B3033984213D0F9
:100FA000484B483398420FD0464B603398420BD0A1
:100FB000444B7833984207D0424B9033984203D049
:100FC000404BA833984208D194F85C703F23A06D41
:100FD00007F01F07BB40836007E094F85C30A06D0A
:100FE00003F01F0301FA03F34360206890424DD0E1
:100FF000A8424BD0B04249D0404547D0484545D0A3
:10100000504543D0584541D02D4A183290423DD0EA
:101010002C4A90423AD02B4A1832904236D0294A74
:101020003032904232D0274A483290422ED0254A60
:10103000603290422AD0234A7832904226D0214A08
:101040009032904222D01F4AA83290421ED01E4AAF
:1010500090421BD01C4A1432904217D01A4A2832B0
:10106000904213D0184A3C3290420FD0164A503268
:1010700090420BD0144A6432904207D0124A783220
:10108000904203D0104A8C3290420BD1D4E919021D
:101090004260E06E30B1026822F480720260D4E9EE
:1010A0001C024260002084F8340084F8351052E7B6
:1010B00010000240580002407000024088000240C8
:1010C000A000024010040240085402582DE9F05FCD
:1010D00028B190F83510022904D080214165012003
:1010E000BDE8F09F904C904B0168183C18338E4A35
:1010F000DFF83C92A1428D4CDFF838E28E4FDFF8EA
:101100003CB2DFF83CA28F4D8F4E31D091422FD0B0
:1011100099422DD0A1422BD0494529D0714527D0E5
:10112000B94225D0DFF810C20CF1180C61451FD070
:10113000DFF808C2ACF1600C614519D0DFF8FCC1E2
:10114000ACF1480C614513D0DFF8F0C1ACF1300CC4
:1011500061450DD0DFF8E4C1ACF1180C614507D052
:10116000594505D0514503D0A94201D0B1422CD1F7
:10117000DFF8B4C14FF0040880F83580ACF1180CEA
:1011800061451DD091421BD0994219D0A14217D080
:10119000494515D0714513D0B94211D06648183071
:1011A00081420DD065486038814209D06348483893
:1011B000814205D061483038814201D05F481838FB
:1011C000086820F001000860ABE0D1F800C02CF006
:1011D0000E08DFF854C1C1F80080ACF1180C0168AA
:1011E000614527D0914225D0994223D0A14221D0F8
:1011F00049451FD071451DD0B9421BD0DFF838C119
:101200000CF1180C614515D0DFF830C1ACF1600C61
:1012100061450FD0DFF824C1ACF1480C614509D01D
:10122000DFF818C1ACF1300C614503D0DFF80CC118
:10123000ACF1180CD1F800C02CF0010CC1F800C0C2
:10124000DFF8E4804FF0010C0168A8F1180841456F
:1012500046D0914244D0994242D0A14240D0494523
:101260003ED071453CD0B9423AD0334A183291420F
:1012700036D0324A603A914232D0304A483A9142AE
:101280002ED02E4A303A91422AD02C4A183A914216
:1012900026D0594524D0514522D0A94220D0B14270
:1012A0001ED02A4A91421BD0284A1432914217D0AC
:1012B000264A2832914213D0244A3C3291420FD020
:1012C000224A503291420BD0204A6432914207D0D8
:1012D0001E4A7832914203D01C4A8C32914218D176
:1012E000016E0A6822F480720A6090F85C20816DB9
:1012F00002F01F020CFA02F24A60D0E919124A60A9
:10130000C16E31B10A6822F480720A60D0E91C1201
:101310004A600022016D80F8342080F835C001B1A8
:1013200088470020DCE60000280002405800024008
:101330007000024088000240A00002407004024099
:1013400088040240A0040240B80402400854025835
:10135000406D70472DE9FC5F0446FA4E0020DFF82F
:10136000E48300904FF41652F74808F11808A56D71
:10137000DFF8D0A3DFF8CCB301680AF1300A2068A7
:101380000BF1480BB1FBF2F1B04201912F68D5F897
:1013900000C0DFF8B89336D04146884233D050457C
:1013A00031D058452FD0E749603188422BD0E549EC
:1013B0007831884227D0E3499031884223D0E149EF
:1013C000A83188421FD048451DD0E04918318842D5
:1013D00019D0DE493031884215D0DC4A483290427B
:1013E00011D0DA49603188420DD0DFF860E30EF1A8
:1013F000780E704507D0D54B9033984203D0D3492F
:10140000A83188427ED194F85C20082102F01F02A6
:1014100001FA02F23A424BD0B04233D0404531D0CB
:1014200050452FD058452DD0C64A6032904229D021
:10143000C44A7832904225D0C24A9032904221D09C
:10144000C04AA83290421DD048451BD0BF4A18322E
:10145000904217D0BD4A3032904213D0BB4A483236
:1014600090420FD0B94A603290420BD0B74A7832DE
:10147000904207D0B54A9032904203D0B34AA83286
:10148000904203D1026802F0040202E0026802F016
:1014900008026AB1026822F00402026094F85C005B
:1014A00000F01F008140A960606D40F001006065A0
:1014B00094F85C00012100F01F008140394241D0C6
:1014C0002068B04235D0404533D0504531D05845E2
:1014D0002FD09C4A603290422BD09A4A7832904268
:1014E00027D0984A9032904223D0964AA832904210
:1014F0001FD048451DD0954A1832904219D0934AC2
:10150000303200E0B2E1904213D0904A483290422B
:101510000FD08E4A603290420BD08C4A7832904283
:1015200007D08A4A9032904203D0884AA83290422B
:101530007ED1406910F0800F04D0A960606D40F04A
:101540000200606594F85C00042100F01F008140F7
:1015500039423FD02068B04233D0404531D0504569
:101560002FD058452DD0774A6032904229D0754A05
:101570007832904225D0734A9032904221D0714AFD
:10158000A83290421DD048451BD0704A1832904274
:1015900017D06E4A3032904213D06C4A4832904293
:1015A0000FD06A4A603290420BD0684A783290423B
:1015B00007D0664A9032904203D0644AA8329042E3
:1015C0004FD1006810F0020F04D0A960606D40F0A8
:1015D0000400606594F85C00102100F01F00814059
:1015E000394259D02068B04235D0404533D05045BB
:1015F00031D058452FD0534A603290422BD0514AB7
:101600007832904227D04F4A9032904223D04D4AB0
:10161000A83290421FD048451DD04C4A1832904203
:1016200019D04A4A3032904215D0484A483200E038
:1016300015E090420FD0454A603290420BD0434AA9
:101640007832904207D0414A9032904203D03F4ACC
:10165000A832904207D1006800F0080006E0006858
:1016600070E70068B6E7006800F00400A0B1A96068
:1016700020680168490304D50068000308D5A16CFF
:1016800007E00168C90503D4016821F00801016081
:10169000216C09B12046884794F85C00202100F0B5
:1016A0001F008140394278D02068B04233D0404595
:1016B00031D050452FD058452DD0224A603290422B
:1016C00029D0204A7832904225D01E4A903290424A
:1016D00021D01C4AA83290421DD048451BD01B4A3D
:1016E0001832904217D0194A3032904213D0174A1C
:1016F000483290420FD0154A603290420BD0134AC4
:101700007832904207D0114A9032904203D00F4A6B
:10171000A832904203D1006800F0100002E0006897
:1017200000F00200A0B3A96094F8350004282068F6
:1017300001680DD049037DD50068000329D4616C90
:1017400028E00000100002401000002410040240B5
:1017500021F0160101602068416921F0800141619A
:10176000206C08B9A06C20B12068016821F0080144
:10177000016094F85C303F21002203F01F03012038
:101780009940A96084F8342084F83500216D66E022
:1017900003E0E16B09B120468847606D00287DD0E9
:1017A000606DC0075AD02068042184F83510B0421B
:1017B0002BD0404529D0504527D0584525D09E49AB
:1017C000884222D09C49183188421ED09A49303133
:1017D00088421AD098494831884216D0484514D0DA
:1017E0009649884211D09549183188420DD09349C5
:1017F0003031884209D091494831884205D08F491B
:101800006031884201D08D497831016821F00101B1
:10181000016020680099019A491C0091914202D808
:101820000168C907F6D1002184F834100068C007A8
:1018300011D000E001E003200EE00168C905A8D442
:1018400003680022012123F01003036084F8342090
:1018500084F835109DE7012084F83500E16C0029FB
:101860001CD002B02046BDE8F05F084774498842AA
:101870001DD073491431884219D0714928318842EA
:1018800015D06F493C31884211D06D4950318842A2
:101890000DD06B496431884209D000E086E0684988
:1018A0007831884203D066498C3188427ED194F8E1
:1018B0005C800427016808F01F0807FA08F717EA98
:1018C0000C0F009746D04F0744D500980F0468606E
:1018D00003D5C8033CD4A16CC1E7880638D420687E
:1018E000B0422DD054494839884229D0504527D09C
:1018F000584525D05049884222D04F491831884256
:101900001ED04D49303188421AD04B494831884267
:1019100016D0484514D04949884211D0474918315A
:1019200088420DD090420BD044494831884207D0BC
:10193000704505D0984203D040499031884203D188
:10194000016821F0080102E0016821F00401016052
:10195000216C84E7022707FA08F717EA0C0F0097B3
:101960004ED08F074CD500980F04686003D5C8038C
:1019700044D4616C73E7880640D42068B0422FD00D
:101980002D49483988422BD0504529D0584527D079
:101990002949884224D028491831884220D0264934
:1019A000303188421CD02449483100E041E088426F
:1019B00016D0484514D02149884211D01F4918310A
:1019C00088420DD090420BD01C494831884207D044
:1019D000704505D0984203D018499031884203D110
:1019E000016821F0140102E0016821F00A010160A0
:1019F000002184F83410012084F83500E16B2EE7D3
:101A0000082202FA08F212EA0C0F12D0090710D5C8
:101A1000016821F00E01016094F85C1001200022A1
:101A200001F01F0100FA01F16960606584F834205B
:101A300012E7BDE8FC9F000070000240280402404D
:101A4000085402582DE9F05F044601F0ADF9002C6E
:101A500007467DD0E34E022120684FF00308DFF8EF
:101A600088934FF00005DFF884A3B042DFF880B31D
:101A700034D0DC4A1832904230D048452ED0504500
:101A80002CD058452AD0DA4A1832904226D0D84A6B
:101A90003032904222D0D64A483290421ED0D54AA7
:101AA00090421BD0D34A1832904217D0D14A3032DC
:101AB000904213D0CF4A483290420FD0CD4A603284
:101AC00090420BD0CB4A7832904207D0C94A90322C
:101AD000904203D0C74AA83290427DD184F8345056
:101AE00084F83510B0422ED0BE49183188422AD031
:101AF000484528D0504526D0584524D0BC491831F7
:101B0000884220D0BA49303188421CD0B849483187
:101B1000884218D0B749884215D0B6491831884252
:101B200011D0B449303188420DD0B2494831884291
:101B300009D0B0496031884205D0AE497831884239
:101B400001D0AC499031016821F00101016008E049
:101B500027E100BF01F028F9C01B052801D9202189
:101B60001CE120680068C007F4D104F10800216876
:101B7000D4E9053C8E4685C809681043D4E9072896
:101B80001F43636A38439C4F40EA0C0010433940BE
:101B900040EA0800042B40EA010003D1D4E90B120B
:101BA00011430843954909686FF30F01B1F1005FD4
:101BB0000FD36168A1F12902052A08D9163A032A30
:101BC00005D9083A012A02D94F39032901D840F42E
:101BD0008010CEF8000000E023E02068676A4069CA
:101BE000042F20F0070047EA00070DD1D4E90A01CD
:101BF000074349B12046FEF7F1FD28B1402060655A
:101C0000012184F83510CCE0206847612046FEF7BA
:101C100003FD94F85C203F2102F01F029140816097
:101C200054E0774A90421BD0754B1433984217D03A
:101C3000734B2833984213D0714B3C3398420FD0EA
:101C40006F4B503398420BD06D4B6433984207D0A2
:101C50006B4B7833984203D0694B8C3398427DD1DB
:101C6000684B84F8345084F835100168A26801EAA2
:101C7000030E402A73D0802A72D00022D4E9037860
:101C8000D4E9053142EAD70242EAD8085C4AD4E9ED
:101C9000077C48EAD30848EAD10141EAD701524219
:101CA00041EA1C11142341EA0E010160206810442E
:101CB000B0FBF3F08000E0652046FEF7ADFC94F841
:101CC0005C20012102F01F02914041602068B04277
:101CD00057D044491831884253D0484551D05045D7
:101CE0004FD058454DD042491831884249D04049DB
:101CF0003031884245D03E494831884241D03D4943
:101D000088423ED03B49183188423AD03949303177
:101D1000884236D037494831884232D0354960311F
:101D200088422ED03349783188422AD031499031C7
:101D3000884226D02F49A831884222D03049884293
:101D40001FD02F49143188421BD02D492831884299
:101D500017D02B493C31884213D002E01DE017E038
:101D600018E02749503188420BD025496431884218
:101D700007D023497831884203D021498C318842E9
:101D800029D12046FEF7A2FCA06880280CD00CE0E8
:101D9000102273E74FF4804270E74021616584F8B8
:101DA00035800120BDE8F09F6560216E20790860D4
:101DB000D4E9190141606068401E072808D8204610
:101DC000FEF7D2FCE06E0560D4E91C01416002E040
:101DD000E566256765670120656584F835000020A4
:101DE000E0E70000100002404000024058000240BE
:101DF00070000240100402403F8010FE0010005CA2
:101E0000085402580F00FEFF2DE9F84F04008C46DD
:101E10004FF00000009013D094F83400012811D046
:101E200094F835500120002184F83400012D0BD0A6
:101E300084F83410C202009062650098BDE8F88F03
:101E40000120FBE70220F9E78C4D0226206884F888
:101E50003560A8428A4D61658A4E8B4FDFF82C822F
:101E6000DFF82C92DFF82CA2DFF82CB226D0A842A3
:101E700024D0B04222D0B84220D040451ED04845A0
:101E80001CD050451AD0584518D08449884215D0E6
:101E900082491831884211D08049303188420DD0B2
:101EA0007E494831884209D07C496031884205D05A
:101EB0007A497831884201D078499031016821F01F
:101EC0000101016061462046FEF7B2FC6B492068C3
:101ED00088422CD0A8422AD0B04228D0B84226D07E
:101EE000404524D0484522D0504520D058451ED0EA
:101EF0006A4A90421BD0694A1832904217D0674A0A
:101F00003032904213D0654A483290420FD0634A33
:101F1000603290420BD0614A7832904207D05F4ADB
:101F20009032904203D05D4AA83290420CD10268B0
:101F300022F01E0242F016020260206C88B1206876
:101F4000026842F008020BE0026822F00E0242F042
:101F50000A020260206C20B12068026842F004028C
:101F60000260206888424BD0A84249D0B04247D096
:101F7000B84245D0404543D0484541D050453FD078
:101F800058453DD0454A90423AD0444A1832904292
:101F900036D0424A3032904232D0404A48329042A3
:101FA0002ED03E4A603290422AD03C4A783290424B
:101FB00026D03A4A9032904222D0384AA8329042F3
:101FC0001ED0374A90421BD0354A1432904217D067
:101FD000334A2832904213D0314A3C3290420FD0DB
:101FE0002F4A503290420BD02D4A6432904207D093
:101FF0002B4A7832904203D0294A8C3290420DD13C
:10200000206E0268D20303D5026842F48072026037
:10201000E06E18B1026842F4807202602068884263
:1020200026D0A84224D0B04222D0B84220D0404589
:102030001ED048451CD050451AD0584518D01749D5
:10204000884215D015491831884211D013493031D2
:1020500088420DD011494831884209D00F4960317A
:10206000884205D00D497831884201D00B49903122
:10207000016841F001010160DFE60000100002404C
:102080002800024040000240580002407000024018
:1020900088000240A0000240B80002401004024044
:1020A0000854025810B590F89830012B09D0022B33
:1020B00007D0D0F89C1041F00201C0F89C1001201C
:1020C00010BD03689C6D0C4203D1DC6D44F001042B
:1020D00004E09C6D31EA04041FD00324DC658B0509
:1020E00005D50368D3F8E0401443C3F8E0404B053E
:1020F00005D50368D3F8E4401443C3F8E44000680E
:10210000084A01EA0203446D074A1C43446510680B
:1021100040EA91701060002010BDDC6D44F00204B4
:10212000DCE70000FFFFCF3F14A8004070B5044675
:1021300090F89800022804D0D4F89C0040F00800E1
:102140000DE02068D0F8C03013F07C5F0BD0D0F8E1
:10215000C4309B020CD5D4F89C0040F40070C4F845
:102160009C00012070BDD4F89C0040F02000F6E7F0
:10217000D0F8C400C0F3044520462B46FEF7BCFD52
:1021800021680120A840C1F8D000C4F894000020C4
:1021900070BD704770B590F89820012A09D0022AC6
:1021A00007D0D0F89C1041F00201C0F89C1001202B
:1021B00070BD0B68CA6883B10B69072A43EA427392
:1021C00025D00C7A4A6942EA84724968006F00EBB4
:1021D000C100C0E90032002070BD072A0DD00C7A82
:1021E000D6060D8A4B6943EA847246EA0543C06EFF
:1021F00049681A4340F82120EDE70B8A4FF06055FB
:10220000D1E9062442EA034245EA0423EFE78A695A
:10221000DBE7704770470000F0B590F89840002564
:10222000022C04D0D0F89C1041F008012BE040298A
:102230004FF0004605D0412929D0046D8C4219D9B0
:1022400042E00468D4F8A07017F4FE0F12D0D4F85E
:10225000A4707F0613D0D4F8A470FF0105D5D4F87C
:10226000A070B6EBD77F00D10125D4F8A470466FDB
:10227000446C24E0D0F89C1041F0200103E0D0F839
:102280009C1041F48071C0F89C100120F0BD0468DE
:10229000D4F8B07017F4FE0FECD0D4F8B4707F0609
:1022A000EDD0D4F8B470FF0105D5D4F8B070B6EB1A
:1022B000D77F00D10125D4F8B470866FC46CC7F302
:1022C00005273D446C4302E0446DC66F4C4306EB6A
:1022D0008404266816F080465660266836D026F0BC
:1022E00060461660D4F800C000262F4F0CF0005C4A
:1022F000C2F808C0D4F800C00CF0004CC2F810C0FE
:10230000B4F804C01FFA8CFCC2F81CC0D4F804C096
:102310000CF4702CC2F80CC0D4F804C00CF4801C6F
:10232000C2F814C0D4F804C00CF4001CC2F818C0E1
:10233000D4F804C0CCF3066CC2F820C0D4F804C0B2
:1023400008344FEADC7CC2F824C008E0C6F38A46B1
:10235000C7E700BF14F806C003F806C0761CD2F821
:102360000CC007EB1C4C9CF800C0B445F2D84029C7
:102370000AD041290CD020294FF001020CD200686C
:102380008A40C0F898200DE00068C0F8A85009E025
:102390000068C0F8B85005E0006801F01F018A40ED
:1023A000C0F89C200020F0BD906800087047000035
:1023B0002DE9FC5FDFF804B3044600680BF104026A
:1023C0008246DBF80070D2F80080026D416D036D2B
:1023D000466DD0F85090456DD0F850C009F0F0002F
:1023E00005EA0009DAF85450DAF8500000F0607E8F
:1023F000B80700EA88700090DAF85470DAF8548070
:1024000002F4704003F00F02014001910CF071538F
:102410005FEAC85106EA020605EA030507EA0E0765
:102420000DD5DAF85000C00509D500214FF48073AE
:10243000CAF85030CBF800102046FFF7B7FF2068ED
:10244000416D490511D5016D49050ED5D0F8DC2047
:10245000D0F8E41000234FF48068C0F85080114099
:10246000CBF80030204600F07DFBDFF85482009866
:1024700050B12268830F00EA08001065CBF80030E5
:1024800020460099FFF785FE019850B12268830F1E
:1024900000EA08001065CBF800302046019900F0F2
:1024A00063FB56B12268B30F06EA08001065CBF84B
:1024B00000303146204600F0B9FAB9F1000F0BD0D8
:1024C00022684FEA997309EA08001065CBF80030DA
:1024D0004946204600F026FB2068416D09050BD5D2
:1024E000016D090508D500214FF400630365CBF8A1
:1024F0000010204600F039FB2068416D890511D598
:10250000016D89050ED5D0F8D820D0F8E010002351
:102510004FF4007CC0F850C01140CBF8003020468A
:1025200000F021FB2068416D09030BD5016D090303
:1025300008D500214FF400230365CBF80010204696
:1025400000F072FA2068416DC9030BD5016DC90313
:1025500008D500214FF480330365CBF800102046E6
:1025600000F0FFFA2068416D49030BD5016D490366
:1025700008D500214FF480230365CBF800102046D6
:1025800000F0EEFA2068416D89030ED5016D8903D4
:102590000BD500214FF400330365CBF80010D4F8BD
:1025A0009C0040F08000C4F89C0057B12268BB0F2B
:1025B00007EA08001065CBF8003039462046FFF7DF
:1025C00029FE5DB12268AB0F05EA08001065CBF863
:1025D0000030D4F89C002843C4F89C003949206896
:1025E000884262D160688146806880075DD0D9F8F2
:1025F0002060D9F82410D9F82080D9F82400D9F81F
:102600002030D9F82470D9F82020D9F82450D9F8EE
:1026100020C002F4FC4206F00F0AD9F824601540ED
:1026200008F0300803F4C0730CF4F02C11EA0A012E
:1026300000EA080807EA030706EA0C0604D0C9F80E
:102640002010204600F089FAB8F1000005D061683A
:1026500008624146204600F082FA6068416A4906F5
:102660000CD5016A490609D5C16BC26B40230362D0
:10267000090C204602F03F0200F070FA2FB16068AA
:1026800007623946204600F067FA35B16068056296
:10269000D4F89C002843C4F89C0036B160680662F8
:1026A000D4F89C003043C4F89C00D4F89C00002867
:1026B00002D02046FFF7ADFDBDE8FC9F10A800400A
:1026C000FFFFCF3F00A000402DE9F04194B08D49BD
:1026D0004C2204466846FDF7E6FE64B18A4D206848
:1026E000A84202D100F58070606094F898004FF025
:1026F000000820B108E0012014B0BDE8F0812046B8
:1027000084F8998000F002F92068816921F01001B5
:10271000816100F049FB0327064604E000F044FB1A
:10272000801B0A2811D8206880690007F6D4206829
:10273000816941F00101816100F036FB06460DE040
:1027400000F032FB801B0A2808D9D4F89C0040F026
:102750000100C4F89C0084F89870CCE72068806978
:10276000C007EDD02068816941F002018161207CC1
:1027700001282068816937D041F040018161607C87
:1027800001282068816932D021F480418161A07CD8
:102790000128206881692DD041F480518161206831
:1027A000A268816921F440711143816120688169C7
:1027B00021F0A40181612068016921F0100101610B
:1027C000E068012819D010B302281BD02068816965
:1027D00041F0800181612068016941F010010161CF
:1027E000E06803280ED012E021F04001C6E741F472
:1027F0008041CBE721F48051D0E72068816941F026
:10280000040103E02068816941F020018161207E9C
:102810006FF0FF02D4E90773A68A1102400602EBAB
:102820000727A0F10070384327685B1E184301EBAF
:1028300006463043F861A068B0F5407F11D104F13D
:102840002800A68C6FF00F0C89C801EB0641401ED2
:1028500002EB0322104322680CEB071318430843D2
:10286000D060206E30B12068626ED0F8C010114385
:10287000C0F8C010D4E917126846D14209D02168C7
:10288000A36E51F8C82F50F8233022F007021A43E4
:102890000A60216C49B12168626C51F8BC3F50F864
:1028A000226023F0070232430A60A16C51B1216813
:1028B000E36C51F8BC2F50F8233022F0700242EA4A
:1028C00003120A60216D51B12168626D51F8BC3F5D
:1028D00050F8220023F4E06242EA002008602068F9
:1028E000A84204D16068816821F003018160C4F8C6
:1028F00094800121C4F89C8084F898102046FEF74B
:1029000017F9F9E6A068000800A000402DE9F0439F
:10291000B5B0804614212FA8FDF7F7FDBC2168460D
:10292000FDF7F3FD3B4D4FF40041D8F800000026C1
:10293000394B4A03364F0C3D364C98424FF0020853
:102940004FF009092ED168461B92009100F058FC07
:1029500008B1FEF77EF83868401C3860012807D1BE
:10296000206840F480702060206800F4807034900B
:10297000286840F00100286028684FF4C052CDE973
:10298000308600F001002F9232962FA9CDE93390C6
:10299000224800F0EBF801220221132000F07EFA19
:1029A00013202FE01E4B98422ED168461B920091B7
:1029B00000F026FC08B1FEF74CF83868401C38607F
:1029C000012807D1206840F480702060206800F45E
:1029D00080703490286840F00200286028686022E7
:1029E000CDE9308600F002002F9232962FA9CDE972
:1029F00033900C4800F0BAF801221420114600F080
:102A00004DFA142000F03CFA35B0BDE8F083000028
:102A100000000024EC44025800A0004000000258CE
:102A200000A40040000402587047000070B505463D
:102A3000394898B00C4685420FD1E0070DD04021AF
:102A4000284616AB0CAAFFF7E7FB08B1FEF701F822
:102A5000002228460121FFF725FB3048854245D159
:102A6000E00743D040216A460AAB2846FFF7D4FB73
:102A700008B1FDF7EEFF2A480022B0EE000A01215E
:102A800080ED0B0A2846FFF70DFB00282ED1244AC3
:102A90000021009B8032A3F20123032B02F13800B6
:102AA0001BD8009BA0F18806BDF82A4006EB430323
:102AB000A3F5805364BAA3F82E4C009BA3F50075D0
:102AC000013D15D0A3F50074023C16D0A3F50074A7
:102AD000033C17D0B3F5017F19D0009BA3F5007418
:102AE000053C03D1D183C18B491CC18318B070BD93
:102AF000D182C38A5B1CC382EFE71183038B5B1C0B
:102B00000383EAE75183438B5B1C4383E5E79183AF
:102B1000818B491C8183E9E7800100242002002485
:102B200018000024704790F89810012907D0D0F8B9
:102B30009C1041F00401C0F89C1001207047022154
:102B400080F89810002201688B6923F001038B61E3
:102B5000C0F89C2010467047704770477047704718
:102B60007047704770477047704770472DE9FC4FBA
:102B700001257E4C00234FF0030A4FF0B04E4FF07A
:102B80000F0BEBE005FA03F637403A0077D04F68B9
:102B9000012F05D0022F03D0112F01D0122F1AD1EF
:102BA00087684FEA4308D1F80CC00AFA08F927EA07
:102BB00009070CFA08FC4CEA070CC0F808C0476883
:102BC00091F804C0B743CCF3001C0CFA03FC4CEAA8
:102BD000070CC0F804C0C6684FEA430CD1F808805F
:102BE000E1460AFA0CF7BE43019708FA09F848EAE9
:102BF0000608C0F80C804E68022E01D0122E12D1A9
:102C0000DE084FEA437C00EB860600960F69366AC1
:102C10004FEADC6C0BFA0CF807FA0CF726EA080608
:102C20003743009E37620E790768DDF804C006F06E
:102C3000030606FA09F627EA0C073E4306604E68CB
:102C4000F6001CD54A4E376847F0020737603668F1
:102C50009F0706F00206009623F0030606F1B04631
:102C6000B1463F0FD6F80864DFF808810BFA07FC7D
:102C7000404526EA0C0603D14FF0000C41E06CE021
:102C8000DFF8F4C0604502D14FF0010C39E0DFF805
:102C9000ECC0604502D14FF0020C32E0DFF8E0C03A
:102CA000604502D14FF0030C2BE0DFF8D8C060453F
:102CB00002D14FF0040C24E0DFF8CCC0604502D113
:102CC0004FF0050C1DE0DFF8C4C0604502D14FF0A5
:102CD000060C16E0DFF8B8C0604502D14FF0070CD3
:102CE0000FE0DFF8B0C0604502D14FF0080C08E0FB
:102CF000DFF8A4C0604502D14FF0090C01E04FF0AD
:102D00000A0C0CFA07FC4CEA060CC9F808C4266841
:102D10004F6826EA0206FF0300D516432660666860
:102D20004F6826EA0206BF0300D516436660D1F855
:102D300004C07646DEF800705FEACC2C27EA020772
:102D400000D517433760D1F804C077685FEA8C2C50
:102D500027EA020700D5174377605B1C0A6817460D
:102D6000DA407FF40FAFBDE8FC8F00008000005810
:102D7000F4440258000002580004025800080258A7
:102D8000000C025800100258001402580018025893
:102D9000001C025800200258002402580148006814
:102DA000000C70470010005C01488068704700000C
:102DB0000400002402488168027811448160704751
:102DC00004000024032010B500F088F800F0F6FF9E
:102DD0000F4A104914681368C4F3032203F00F0369
:102DE0008A5CC95C02F01F0201F01F01D0400A4A50
:102DF00020FA01F1116009490860002000F010F884
:102E000008B1012010BD00F02BF8002010BD00001B
:102E1000184402581C690008140000241000002403
:102E200070B50D4D04462878A0B14FF47A71B1FB0E
:102E3000F0F00A490968B1FBF0F001F0DFFA48B997
:102E4000102C07D200222146501E00F027F8002047
:102E50006C6070BD012070BD0400002410000024CF
:102E6000064882B0016841F002010160006800F08C
:102E700002000090052002B000F030B8F44402587F
:102E8000002809DB410900F01F028900012001F13F
:102E9000E0219040C1F80001704700000E4BF0B4F3
:102EA0001B680D46C3F30223C3F10706042E00D9A5
:102EB0000426191D072901D2002300E0DB1E01248E
:102EC00004FA06F19C40491E2940641E99401440B2
:102ED0002143F0BC03F0A8BC0CED00E0064900F073
:102EE000070210B54FF6FF040868044B204040EA83
:102EF00002201843086010BD0CED00E00000FA0548
:102F0000134970B50A68D243520705D5096801F024
:102F10000701814213D118E00A6822F00702024338
:102F20000A60FFF741FF0A4D4FF47A760446083DE8
:102F300007E000BFFFF738FF001BB04201D90120B6
:102F400070BD2868C0438004F4D4002070BD000028
:102F50000C48025810B500F0EBFE05490968054A17
:102F6000C1F30211515C01F01F01C84010BD000007
:102F7000204402581C690008494930B5484C0B1DD3
:102F80000A68143409681D68246802F00303C5F355
:102F90000012C1F30531C4F3CC04002914FB02F282
:102FA00000EE102AF8EE400A75D03F4A9FED3D1A18
:102FB000B7EE000A6BB1DFED3D1A012B01D0022BF9
:102FC00064D002EE101A1168F8EE422A81EEA22AAD
:102FD00021E0334C283C23689B0612D5344B2468EF
:102FE00001EE901A1168C4F3C104F8EE612AE340BF
:102FF00001EE903AC1F30801F8EE611A81EEA22ABF
:103000000BE001EE901ADFED2B2A00BFF8EE611AFB
:10301000116882EEA12AC1F3080101EE901A11682D
:10302000F8EE611A40EE811A71EE800A62EE200A13
:10303000C1F3462101EE101AB8EE411A31EE001A22
:10304000C0EE811ABCEEE11A80ED001A1168C1F3DE
:10305000064101EE101AB8EE411A31EE001AC0EE28
:10306000811ABCEEE11A80ED011A1168C1F3066104
:1030700001EE101AB8EE411A31EE000A80EE801A05
:10308000BCEEC10A80ED020A30BD04E001EE901AE8
:10309000DFED092ABAE70021016041608160F3E7B2
:1030A0002844025800000039384402580024744A69
:1030B0000090D0030024744C0024F44A494930B5F0
:1030C000484C0B1D0A681C3409681D68246802F00E
:1030D0000303C5F30022C1F30551C4F3CC04002956
:1030E00014FB02F200EE102AF8EE400A75D03F4AB7
:1030F0009FED3D1AB7EE000A6BB1DFED3D1A012BD3
:1031000001D0022B64D002EE101A1168F8EE422AA8
:1031100081EEA22A21E0334C283C23689B0612D57D
:10312000344B246801EE901A1168C4F3C104F8EE20
:10313000612AE34001EE903AC1F30801F8EE611A0A
:1031400081EEA22A0BE001EE901ADFED2B2A00BFE0
:10315000F8EE611A116882EEA12AC1F3080101EEAE
:10316000901A1168F8EE611A40EE811A71EE800A29
:1031700062EE200AC1F3462101EE101AB8EE411AA0
:1031800031EE001AC0EE811ABCEEE11A80ED001A91
:103190001168C1F3064101EE101AB8EE411A31EE82
:1031A000001AC0EE811ABCEEE11A80ED011A116816
:1031B000C1F3066101EE101AB8EE411A31EE000AB1
:1031C00080EE801ABCEEC10A80ED020A30BD04E038
:1031D00001EE901ADFED092ABAE700210160416093
:1031E0008160F3E728440258000000394044025847
:1031F0000024744A0090D0030024744C0024F44A44
:103200002DE9FC5F044650F8241B002500902E4653
:103210000801FE4FDFF8F8831DD5606E50B1B0F5A0
:10322000801F0CD0B0F5001F0ED0B0F5401F1DD090
:1032300001250FE0386840F40030386016E00221C4
:10324000201D02F04FF903E00098022102F0DAF9A4
:1032500005000BD02E462088C00523D5606D0528BB
:103260001ED2DFE800F00C11161B1B00626ED8F8AE
:10327000001021F440111143C8F80010EBE7386842
:1032800040F40030386009E00021201D02F02AF9E6
:1032900003E00098002102F0B5F905466DB100E0A9
:1032A00001252E462088800528D5A06D80281ED0B7
:1032B0000CDC90B140280ED114E0626DD8F80010FB
:1032C00021F007011143C8F80010EBE7C02813D024
:1032D000B0F5807F10D001250FE0386840F4003051
:1032E000386009E00021201D02F0FCF803E000989E
:1032F000002102F087F9054695B12E462088DFF8B7
:103300001093400509F108092CD5D4F8A400B0F5B4
:10331000800F20D00DDCA0B1B0F5001F0FD115E05B
:10332000A26DD8F8001021F4E0711143C8F8001024
:10333000E4E7B0F5C00F13D0B0F5000F10D00125B1
:103340000FE0386840F40030386009E00021201DAB
:1033500002F0C8F803E00098002102F053F9054696
:1033600075B12E46208800052DD5D4F8A800B0F1FF
:10337000007F21D00EDCA8B1B0F1807F10D116E023
:10338000D4F8A420D9F8001021F460011143C9F841
:103390000010E7E7B0F1407F13D0B0F1806F10D09C
:1033A00001250FE0386840F40030386009E0002162
:1033B000201D02F097F803E00098002102F022F9A6
:1033C00005466DB12E46206880011FD5A06CD8B18E
:1033D00010280FD0202812D0302815D0012514E055
:1033E000D4F8A820D9F8001021F0E0611143C9F801
:1033F0000010E8E7386840F40030386004E002214B
:10340000201D02F06FF805466DB12E462088C004DD
:103410002BD5E06DB0F5005F20D00DDCA0B1B0F58C
:10342000805F0FD115E07A48A26C001F016821F07F
:10343000300111430160E9E7B0F5405F13D0B0F50A
:10344000804F10D001250FE0386840F4003038601C
:1034500009E00021201D02F045F803E0009800215A
:1034600002F0D0F8054685B12E462088800429D583
:10347000206EB0F5403F23D010DC08B3B0F5803F9C
:1034800014D0B0F5003F0FD115E0E26DD8F8001070
:1034900021F4E0411143C8F80010E6E7B0F5802FB1
:1034A0000ED0B0F5A02F0BD001250AE00121201D80
:1034B00002F018F803E00098012102F0A3F8054695
:1034C0008DB12E46208840042AD5D4F8AC00B0F146
:1034D000405F23D010DC08B3B0F1805F14D0B0F1AE
:1034E000005F0FD115E0226ED8F8001021F4E02122
:1034F0001143C8F80010E5E7B0F1804F0ED0B0F1ED
:10350000A04F0BD001250AE00121201D01F0EAFFA8
:1035100003E00098012102F075F805466DB12E46D2
:10352000208800041FD5E06ED8B1B0F1805F0ED0C6
:10353000B0F1005F10D0012514E0D4F8AC20D9F828
:10354000001021F0E0411143C9F80010E8E73868A5
:1035500040F40030386004E00121201D01F0C2FF7A
:1035600005466DB12E462068C0011ED5606CD0B1F5
:1035700001280ED0022811D0032814D0012513E011
:10358000E26ED8F8001021F040511143C8F8001045
:10359000E9E7386840F40030386004E00221201D7B
:1035A00001F0A0FF054685B12E462068DFF85CB02B
:1035B0004002ABF11C0B57D51648016841F48071ED
:1035C0000160FFF7F1FB82460EE01148626C001FBC
:1035D000016821F0030111430160E6E7FFF7E4FB16
:1035E000A0EB0A0064283DD80A480068C005F5D55C
:1035F0007DBBDFF81CA0B4F8B0200AF1200ADAF88D
:10360000001002F4407001F4407105E02C440258AF
:103610005044025800480258814211D0DAF8001094
:10362000DAF8002021F4407142F48032CAF8002018
:10363000DAF8002022F48032CAF80020CAF800101C
:10364000D4F8B000B0F5807F21D1FFF7ADFB019039
:1036500019E008E0FFF7A8FB0199411A41F2883010
:10366000814210D903252E462078DFF844A4C007F4
:103670003DD0A06F182838D026DC80B3082829D088
:10368000102825D12CE0DAF800008007E2D5D4F824
:10369000B010C1F30120032858460DD0016821F471
:1036A0007C510160B4F8B020DAF80010C2F30B02CC
:1036B0001143CAF80010D7E7FE4A036802EA111264
:1036C00023F47C511143ECE720280ED028280CD09D
:1036D00001250BE00121201D01F004FF04E004E0BE
:1036E0000098012101F08EFF05465DB12E4620783D
:1036F00080071ED5606F062819D2DFE800F0160C8F
:1037000011161616A26FDAF8001021F038011143D5
:10371000CAF80010EBE70121201D01F0E3FE03E0F1
:103720000098012101F06EFF054675B100E001250A
:103730002E46207840071FD5D4F89000062819D2CD
:10374000DFE800F0160C11161616626FDAF800109A
:1037500021F007011143CAF80010EAE70121201DFA
:1037600001F0C0FE03E00098012101F04BFF054687
:103770009DB100E001252E46207880062BD5D4F897
:103780008C00B0F1405F24D011DC10B3B0F1805F49
:1037900015D0B0F1005F10D116E0D4F89020D9F820
:1037A000001021F007011143C9F80010E4E7B0F15F
:1037B000804F0ED0B0F1A04F0BD001250AE00021C0
:1037C000201D01F08FFE03E00098022101F01AFF96
:1037D00005468DB12E46207840062BD5D4F89800AA
:1037E000B0F5406F24D011DC10B3B0F5806F15D068
:1037F000B0F5006F10D116E0D4F88C20DAF8001084
:1038000021F0E0411143CAF80010E4E7B0F5805F11
:103810000ED0B0F5A05F0BD001250AE00021201DDD
:1038200001F060FE03E00098022101F0EBFE054686
:103830008DB12E46207800062BD5D4F89C00B0F52B
:10384000C04F24D011DC10B3B0F5005F15D0B0F537
:10385000804F10D116E0D4F89820D9F8001021F448
:10386000E0511143C9F80010E4E7B0F5004F0ED065
:10387000B0F5204F0BD001250AE00021201D01F0FA
:1038800031FE03E00098022101F0BCFE05464DB177
:103890002E46207800071ED5D4F88000B0F5805F52
:1038A0000AD00FE0D4F89C20D9F8001021F4604130
:1038B0001143C9F80010ECE70098022101F0A2FEC4
:1038C00000B10126D4F88020DAF8001021F440512C
:1038D0001143CAF800102078C00613D5D4F894001C
:1038E000B0F5807F05D10098022101F08BFE00B178
:1038F0000126D4F89420D9F8001021F44071114326
:10390000C9F800102068000316D5D4F8A00038B11B
:10391000B0F5803F09D0B0F5003F0BD001250AE09B
:103920000021201D01F0DEFD03E00098022101F0DE
:1039300069FE054685B12E462068400322D5D4F89D
:103940008400B0F5801F11D0B0F5001F13D0B0F582
:10395000401F15D0012514E0D4F8A020D9F800109C
:1039600021F440311143C9F80010E5E7386840F40C
:103970000030386004E00098012101F043FE054664
:1039800055B12E462068C0031CD5E06C70B1B0F56F
:10399000803F10D0012514E0D4F88420DAF800101C
:1039A00021F440111143CAF80010EBE7386840F4E5
:1039B0000030386004E00221201D01F093FD05462F
:1039C000CDB12E462068800005D50098022101F077
:1039D00019FE00B10126206880031BD5E06FB8B145
:1039E000B0F5807F10D0B0F5007F11D0B0F5407FEA
:1039F0000ED001250DE02E48E26C0838016821F454
:103A0000803111430160DDE7386840F400303860F0
:103A1000F5B32E462068C00207D5226FD8F80010F3
:103A200021F000411143C8F800102068C00008D5FB
:103A3000D4F8B420DBF8001021F480411143CBF816
:103A400000102068800207D5A26ED8F8001021F07F
:103A500080711143C8F80010206840000CD5DBF8D5
:103A6000001021F40041CBF80010DBF80010D4F86E
:103A7000B8201143CBF800102068002807DA0C4862
:103A8000226D0838016821F040511143016000E0C7
:103A900014E02068000208D5D4F88820DAF8001075
:103AA00021F440011143CAF8001086B1012003E05F
:103AB00054440258CFFFFF00BDE8FC9FE26FDAF8E4
:103AC000001021F440711143CAF80010A2E7002051
:103AD000EDE700002DE9F05F04000F467ED0DFF82F
:103AE0003882D8F8000000F00F00B8420CD2D8F8A5
:103AF000001021F00F013943C8F80010D8F8000079
:103B000000F00F00B84269D12078844D40070AD5F3
:103B10002069296801F07001884204D9296821F0E0
:103B200070010143296020787C4E361D00070AD5BC
:103B30006069316801F07001884204D9316821F070
:103B40007001014331602078C0060AD5A069316850
:103B500001F4E061884204D9316821F4E061014355
:103B600031602078DFF8B4B180060BF1080B0CD57A
:103B7000E1695846DBF8002002F07002914204D956
:103B8000026822F070020A430260207880070AD59A
:103B9000E068296801F00F01884204D9296821F002
:103BA0000F01014329602078C0073ED05B49A2681D
:103BB0002868183920F47060104328606068022873
:103BC00018D0032819D00968012819D049070029FD
:103BD0004ADADFF848A1AAF1080A00E044E0DAF87E
:103BE000002022F007020243CAF80020FFF7DCF8A9
:103BF000814612E009688903E9E709688901E6E777
:103C0000C905E4E7FFF7D0F8A0EB090141F28830DD
:103C1000814202D90320BDE8F09F6168DAF8000014
:103C200000F03800B0EBC10FECD1207880070AD546
:103C3000E068296801F00F01884204D2296821F068
:103C40000F0101432960D8F80010404601F00F0130
:103C5000B9420BD9016821F00F01394301600068B6
:103C600000F00F00B84201D00120D4E720784007CF
:103C70000AD52069296801F07001884204D22968B8
:103C800021F0700101432960207800070AD560699E
:103C9000316801F07001884204D2316821F070016E
:103CA000014331602078C0060AD5A069316801F46B
:103CB000E061884204D2316821F4E061014331605F
:103CC000207880060CD5E1695846DBF8002002F028
:103CD0007002914204D2026822F070020A4302602C
:103CE00000F06CF80E492A682B68C2F3032203F037
:103CF0000F038A5CC95C02F01F0201F01F01D04073
:103D0000084A20FA01F11160074908600748006875
:103D1000BDE8F05FFFF784B8002000521844025855
:103D20001C6900081400002410000024080000246E
:103D300030B500F043F80B4A0B490C4B156814687A
:103D4000C5F3032204F00F048A5C095D02F01F0230
:103D500001F01F01D040064A20FA01F119601060FD
:103D6000084630BD184402581C690008140000249D
:103D70001000002400B5FFF7DBFF05490968054A7C
:103D8000C1F30211515C01F01F01C84000BD0000E9
:103D90001C4402581C69000800B5FFF7C9FF05491B
:103DA0000968054AC1F30221515C01F01F01C840B6
:103DB00000BD00001C4402581C690008454970B54C
:103DC00045480968434B103B11F0380208D00111F7
:103DD000082A03D0102A0BD0182A0BD0084670BD31
:103DE00019688906FBD51968C1F3C101C84070BDC7
:103DF0003A4870BD3749374D18310C1D24350A68D3
:103E0000096826682D6802F0030406F00102C1F378
:103E10000511C5F3CC0515FB02F200EE102AB8EE31
:103E2000400AE9B32F4ADFED2E0AB7EE001A6CB153
:103E3000DFED2D1A012C01D0022C43D002EE101A16
:103E40001068F8EE422A81EEA22A1EE01C68A40641
:103E500011D51B6801EE901A1168C3F3C103F8EE87
:103E6000612AD84001EE900AC1F30800F8EE611A09
:103E700081EEA22A0BE001EE901ADFED1C2A00BFB2
:103E8000F8EE611A106882EEA12AC0F3080001EE74
:103E9000900AF8EE611A40EE201A31EE810A00E035
:103EA00015E022EE000A1068C0F34620401C00EE28
:103EB000900AF8EE600A80EE201ABCEEC10A10EEFD
:103EC000100A70BD01EE901ADFED092AD8E7002034
:103ED00070BD0000104402580090D00300127A0018
:103EE00000000039304402580024744A0024744C05
:103EF0000024F44A2DE9F05F04007CD0FF4F2078C5
:103F0000FE4D1837DFF8F493103DC00748D0D9F8BC
:103F10000000396800F03800102815D0182803D1A7
:103F200001F0030002280FD06068B0F5803F12D086
:103F300010B1B0F5A02F18D0286820F48030286088
:103F4000286820F4802009E02868800328D560686C
:103F50000028D2D024E0286840F4803028606068CF
:103F600088B1FEF721FF064609E0286840F480206A
:103F70002860F0E7FEF718FF801B64287ED82868C9
:103F80008003F7D50CE0FEF70FFF064605E000BF03
:103F9000FEF70AFF801B6428F0D828688003F7D456
:103FA000207841F20308D54E0C3E800753D5D9F84E
:103FB0000000396810F038000ED0182801D18807A9
:103FC0000AD0E068A8B3296821F0190101432960EB
:103FD000FEF7EAFE82461BE02868400702D5E0684B
:103FE00000288AD0FEF7DAFE40451BD82069402819
:103FF00012D0316800E0CCE021F47C3141EA00309D
:10400000306028E0FEF7D0FEA0EB0A000228B5D809
:1040100028684007F6D5E5E7306820F47C3040F4A6
:104020000030EDE7207C316821F0FE4141EA00607C
:10403000E6E7FFE7286820F001002860FEF7B4FEFD
:10404000824605E0FEF7B0FEA0EB0A00022895D8F4
:1040500028684007F6D42078C0065FD5D9F800005C
:10406000DFF898B2396800F03800ABF1040B08288B
:1040700012D0182805D101F0030000E0EAE0012881
:104080000AD0E0690028286838D040F08000286015
:10409000FEF78AFE824623E02868C00523D5E06942
:1040A000802876D11FE0206A202821D0316821F0B5
:1040B000F84141EA8060306030E000BF94F82010A1
:1040C000DBF8002022F07C5242EA0161CBF80010BC
:1040D00024E000BFFEF768FEA0EB0A00022896D895
:1040E0002868C005F6D5FEF759FE4045E6D8DAE760
:1040F000306820F0F84040F08040DCE720F080009D
:104100002860FEF751FE064605E000BFFEF74CFEB4
:10411000801B02289BD82868C005F7D420780007A8
:1041200029D576486169643000298046016811D03C
:1041300041F001010160FEF737FE064605E000BFD1
:10414000FEF732FE801B0228C9D8D8F8000080078D
:10415000F6D510E021F001010160FEF725FE0646CC
:1041600005E000BFFEF720FE801B022872D8D8F8B9
:1041700000008007F6D42078800623D5A0690028A7
:10418000286810D040F480502860FEF70DFE0646E7
:1041900005E02CE1FEF708FE801B02285AD82868AB
:1041A0008004F7D50EE020F480502860FEF7FCFD77
:1041B000064604E0FEF7F8FD801B02284AD828686E
:1041C0008004F7D4207840074FD5DFF83481D8F841
:1041D000001041F48071C8F80010FEF7E5FD0646B6
:1041E00005E000BFFEF7E0FD801B642832D8D8F858
:1041F0000000C005F6D5414EA068603601280AD0FF
:1042000008B1052813D0306820F001003060306814
:1042100020F0040002E0306840F001003060A06847
:1042200041F2883A90B1FEF7BFFD80460AE030685F
:1042300040F004003060EEE7FEF7B6FDA0EB0801A9
:10424000514507D830688007F6D50EE0FEF7ACFD83
:10425000804607E084E000BFFEF7A6FDA0EB080162
:1042600051457DD830688007F6D4606AF0B3DFF836
:104270008C80D9F8001008F12008C1F3C20103298D
:104280006FD00228286820F08070286003D0FEF7E5
:104290008BFD044680E0FEF787FD064605E000BF83
:1042A000FEF782FD801B022873D828688001F7D4AE
:1042B000E26A40F2F331386854F8283F884340EA14
:1042C000021018433860217B4FF4FE0C22894FF016
:1042D000FE47208A4902267D521E401EA1F500712C
:1042E00089B20CEA0040C2F3080200E081E0114309
:1042F000761E0143014807EA066203E010440258B3
:10430000004802581C3011433B4AC8F800100168AD
:1043100021F00101016011684FF6F876236AB1437C
:1043200041EAC30111600168A26921F00C01114347
:1043300001600168E26921F0020111430160016836
:1043400041F480310160016841F40031016001688D
:1043500041F480210160016841F00101016001E048
:1043600017E01DE0286840F080702860FEF71CFD13
:10437000044604E0FEF718FD001B022809D828684F
:104380008001F7D535E000BFFEF70EFD001B0228C7
:1043900002D90320BDE8F09F28688001F4D428E00A
:1043A00039680128D8F8000021D0A26A01F003037F
:1043B00093421CD1E26AC1F305118A4217D1216BE5
:1043C000C0F30802491E8A4211D1616BC0F3462234
:1043D000491E91420BD1A16BC0F30642491E914286
:1043E00005D1E16BC0F30660491E814201D0012076
:1043F000D0E70020CEE7000034440258401EB0F160
:10440000807F10B501D3012010BD4FF0E024606122
:104410000F21601702F008FA0020A0610721216136
:1044200010BD70477047704710B5040003D094F872
:104430003D0010B107E0012010BD002084F83C00D1
:10444000204600F023F8022084F83D002068211D5A
:1044500001F08EFA012084F8480084F83E0084F8C8
:104460003F0084F8400084F8410084F8420084F85A
:10447000430084F8440084F8450084F8460084F83A
:10448000470084F83D00002010BD000008B500681A
:104490000B49884212D10B48016841F480710160D8
:1044A00000680122032100F4807000902D20FEF7A7
:1044B000F5FCBDE808402D20FEF7E2BC08BD000079
:1044C00000200040E844025890F83D10012901D036
:1044D00001207047154A022180F83D100168CB6821
:1044E00043F00103CB600068904211D0B0F1804FDF
:1044F0000ED00F4988420BD00E49884208D00E4991
:10450000884205D00D49884202D00D49884207D122
:1045100081680C4A1140062906D0B1F5803F03D0CE
:10452000016841F001010160002070470000014076
:104530000004004000080040000C0040000401405E
:104540000018004007000100704770B5044600687D
:1045500000250169C943890715D4C168C943890782
:1045600011D4EA1E02610121217720688069800749
:10457000204602D0FFF7E8FF04E000F0A7F820464D
:1045800000F0A5F8257720680169C943490717D4C9
:10459000C168C943490713D402216FF004020261C4
:1045A00021772068806910F4407F204602D0FFF711
:1045B000CBFF04E000F08AF8204600F088F8257769
:1045C00020680169C943090716D4C168C9430907AE
:1045D00012D404216FF00802026121772068C069BB
:1045E0008007204602D0FFF7AFFF04E000F06EF82E
:1045F000204600F06CF8257720680169C943C90698
:1046000017D4C168C943C90613D408216FF010023A
:10461000026121772068C06910F4407F204602D0F3
:10462000FFF792FF04E000F051F8204600F04FF849
:10463000257720680169C943C90708D1C168C94302
:10464000C90704D1891E0161204600F041F82068A5
:104650000169C943090609D4C168C943090605D4DB
:104660006FF0800101612046FFF7DCFE20680169E0
:10467000C943C90509D4C168C943090605D46FF403
:10468000807101612046FFF7CCFE20680169C943B3
:10469000490609D4C168C943490605D46FF04001F1
:1046A0000161204600F02EF920680169C94389069E
:1046B0000BD4C168C943890607D46FF0200101619A
:1046C0002046BDE87040FFF7AEBE70BD7047704732
:1046D0002DE9FF41874905468748884CF0EE000ADE
:1046E000B1F90020B0F9000094ED100A002A34DB83
:1046F00000280ADD01EE102A01EE900AB8EEC11A78
:10470000F8EEE11A01EE801A0BE001EE100A01EE5C
:10471000902AB8EEC12AB8EEE11A62EE001A01EE54
:10472000A01ABDEEC11A11EE100A08807248B1F944
:104730000220002AB0F902001DDB002810DD00BFB6
:1047400001EE902A01EE100AF8EEE11AB8EEC11A55
:1047500041EE001ABDEEE11A1DE00028D5DCC9E7E4
:1047600001EE100A01EE902AB8EEC12AB8EEE11A65
:1047700062EE001A0BE00028E2DD01EE900A01EE85
:10478000102AF8EEE11AB8EEC11A61EE801A01EEB5
:10479000A01ABDEEC11A11EE100A48805648B0F9B1
:1047A0000420B1F9040000287EDB002A0BDD00BFE5
:1047B00001EE100A00EE902AB8EEC11AF8EEE00AF7
:1047C00000EE801A0BE001EE102A01EE900AB8EE1E
:1047D000C12AB8EEE11A22EE000A00EE201ABDEE60
:1047E000C10A10EE100A8880B1F9002000B200EE74
:1047F000100AB1F90210534201EE902A02EE103A6B
:1048000000EE901A94ED131AF8EEE12AF8EEC03A91
:10481000F8EEE11AB8EEC04AB8EEC23AF8EEC04A75
:10482000B8EEC22AB8EEC00A43EE812A44EE011A5D
:10483000B8EEE05A04EE813AF8EEE05A00EE012AB2
:10484000B8EEE06AF8EEE00A32EE850A31EEE51ADB
:1048500073EE061A72EE600A84ED030A84ED001A04
:10486000C4ED021A5FF00006C4ED010A04EB8607EE
:1048700004EB460097ED000AF1B2B0F93020BDEE2E
:10488000C00A10EE100A00EE102A00B2B8EEC00AFC
:1048900001F03CFF761C042E87ED080AE6DB184881
:1048A000854219D1154800E018E03038816A491C6A
:1048B000816200F05BFF114AC032108000F056FFA9
:1048C000108078B100F02EFF00200090019002903F
:1048D00003906846FCF7CCF8BDE8FF81002A3FF75B
:1048E00072AF65E704B005482030BDE8F041FCF741
:1048F000BFB80000740100247A010024480000249D
:10490000C0020024704730B590F88010012918D0FB
:10491000012280F880202421C0F884100022202465
:1049200050F8641B0B680D6823F0005325F0010557
:104930000D60026050F8641C0B6004620277104640
:1049400030BD022030BD7047704770B5044690F806
:10495000800001281DD0012284F880202420C4F882
:10496000840020680568026822F001020260206865
:10497000826822F060620A438260204601F05AF8A1
:104980002268202100201560C4F8841084F880007B
:1049900070BD022070BD70B5044690F880000128FB
:1049A0001DD0012284F880202420C4F884002068CF
:1049B0000568026822F0010202602068826822F025
:1049C00060420A438260204601F034F822682021C8
:1049D00000201560C4F8841084F8800070BD0220A7
:1049E00070BD7047704770B5044600681026D4F853
:1049F0008410D4F888508268120612D5212910D16B
:104A0000816821F080018160A06F38B1FCF7ACF9BA
:104A100020B1A06FFCF79CFC20281BD0204601F0A1
:104A200049F920688168490612D5222D10D1816884
:104A300021F040018160E06F38B1FCF795F920B1B9
:104A4000E06FFCF785FC202804D0204601F016F921
:104A5000002070BDC4F88C60032070BD704700005A
:104A60002DE9F04103680446002540F60F06D86999
:104A700019689A68304209D186067DD501F0200672
:104A800002F080573E4377D0216F39E1AF4EB04FEF
:104A900016400F4037436FD0C70709D0CF0507D561
:104AA00001271F62D4F88C3043F00103C4F88C3026
:104AB00083070AD5D30708D0276802233B62D4F8BE
:104AC0008C3043F00403C4F88C3043070AD5D30775
:104AD00008D0276804233B62D4F88C3043F00203EB
:104AE000C4F88C3003070CD501F02003334308D001
:104AF000266808233362D4F88C3043F00803C4F8E6
:104B00008C3003050BD54B0109D526684FF40063A3
:104B10003362D4F88C3043F02003C4F88C30D4F8DE
:104B20008C30002B34D0800609D501F0200002F033
:104B30008051084303D0216F09B12046884721687E
:104B4000D4F88C008968490602D410F0280F21D0CF
:104B5000204601F093F820688168490615D58168E0
:104B600021F040018160E06F78B17A490165E06F22
:104B7000FCF7ACFA002800E012E009D0E06F016D0C
:104B800000E02046BDE8F04108472046FFF766FFF9
:104B9000BDE8F0812046FFF761FFC4F88C50F7E7CD
:104BA000E76E2026012F71D1C7066FD5CF066DD5D0
:104BB0001020186222689068400669D5E16F664B44
:104BC0000868984234D0644B1833984230D0624B16
:104BD000303398422CD0604B4833984228D05E4BFB
:104BE0006033984224D05C4B7833984220D05A4BA3
:104BF000903398421CD0584BA833984218D0574B4A
:104C0000984215D0554B1833984211D0534B30333E
:104C100098420DD0514B4833984209D04F4B6033E6
:104C2000984205D04D4B7833984201D04B4B90338E
:104C300040680004000CABD0B4F85C308342A7D9C4
:104C4000A4F85E00C869B0F5807F18D0106820F421
:104C5000807010602068816821F001018160206807
:104C6000816821F040018160C4F88860E5662068B1
:104C7000016821F010010160E06FFCF775F8B4F8ED
:104C80005C00B4F85E10401A81B220E023E0FFE738
:104C9000B4F85C00B4F85E10B4F85E30401A81B22B
:104CA000002BC8D00029C6D010682D4B20F490707E
:104CB00010602068826802EA03028260C4F888609B
:104CC000E56625672068026822F01002026020462F
:104CD000FFF739FE5CE7C70209D5570207D54FF445
:104CE000801018622046BDE8F041FFF77BBE070642
:104CF0000AD501F0800702F40002174304D0616F67
:104D000000297FF43EAF43E742060CD54A060AD598
:104D10001968204621F040011960C4F88460656775
:104D200000F04AF934E7020206D54A0004D52046CD
:104D3000BDE8F041FFF755BEC001CBD50029C9DA67
:104D40002046BDE8F041FFF7FFBD00000100001064
:104D500020010004A15B0008100002401004024082
:104D6000FEFFFFEF10B5040003D0D4F8840010B1AB
:104D700007E0012010BD002084F88000204600F0EC
:104D800027F82420C4F884002068016821F001017C
:104D90000160204600F09CFF0128EBD0A06A10B112
:104DA000204600F069FE2068416821F4904141608E
:104DB0002068816821F02A0181602068016841F043
:104DC000010101602046BDE8104000F0B9BE0000BE
:104DD0002DE9F047B6B0064614212FA8FBF795FB46
:104DE000BC216846FBF791FB584F0120584A00242C
:104DF0003168103F554D4FF4806A91424FF00208E0
:104E00004FF007093DD11E9400906846FEF7F8F96F
:104E100008B1FBF71EFE286840F0100028602868E3
:104E200000F010003490386840F0010038603868B5
:104E30004FF4C062CDE9308400F001002F9232942B
:104E40002FA9CDE933904348FDF790FE424D29222A
:104E50004249284685E81600C5E9034A6C61AC6101
:104E6000EC612C626C62FCF7EDFD08B1FBF7F1FD23
:104E7000F56700220121AE632520FEF70FF82520FB
:104E80005EE0374A91425DD11E9400906846FEF77D
:104E9000B7F908B1FBF7DDFD286840F02000286075
:104EA000286800F020003490386840F00400386032
:104EB0003868C022CDE9308400F004002F9232948B
:104EC0002FA9CDE933902748FDF750FEDFF8888001
:104ED00047222249574608F178089031404688E831
:104EE00016008B15C0E9034AC8F81440C0E9064310
:104EF000C8F82040C8F82440FCF7A4FD08B1FBF72F
:104F0000A8FD154D482215494023F035C6F87C8090
:104F1000A831C8F83860284685E89E006C61AC610D
:104F2000EC612C626C62FCF78DFD08B1FBF791FD22
:104F30000022B56747201146AE63FDF7AFFF47205B
:104F4000FDF79EFF36B0BDE8F0870000F044025840
:104F500000100140000002582C0400241000024000
:104F60000014014000080258F0B4D0F88830202B1B
:104F70001BD1B9B1B2B190F88030012B15D00368C4
:104F800001260B4D002480F88060C466AB4206D039
:104F90005C68240203D51C6844F080641C60F0BC8B
:104FA00001F06CB80120F0BC70470220FBE7000064
:104FB000000C0058704770477047FEE7114808B56D
:104FC000016841F00101016000680022114600F013
:104FD000010000900B20FDF761FF0B20FDF750FF53
:104FE000002211201146FDF759FF1120FDF748FF5F
:104FF00000222F201146FDF751FFBDE808402F2069
:10500000FDF73EBFD84402581848002170B5164D30
:1050100000F114068160012205600824C1601F258B
:10502000017404234174817486E83400C0E90842A5
:1050300082622024C262C0E90C2181630A22C0E995
:105040000F14C0E91131C0E91331C0E91531C0E9CD
:105050001712C0E91913FDF737FB002803D0BDE88C
:105060007040FBF7F6BC70BD00A00040800100243A
:1050700000B589B001AB002002210090012283E835
:1050800007000490694605900248FDF783F809B0CF
:1050900000BD00002002002470B519480021174D02
:1050A000012200F1140C082481601F2605604FF4D2
:1050B000A065C16004230174417481748CE85400BC
:1050C000C0E9084282622024C26202630A22C0E967
:1050D0000D51C0E90F14C0E91131C0E91331C0E925
:1050E0001531C0E91712C0E91913FDF7EDFA0028D0
:1050F00003D0BDE87040FBF7ACBC70BD00A400401D
:1051000020020024114808B5016841F080010160C7
:10511000016801F080010091016841F00401016023
:10512000016801F004010091016841F00101016092
:10513000016801F001010091016841F00201016084
:10514000006800F00200009008BD0000E044025832
:105150000B4840F2E73210B50021084CEF23C0E9BC
:10516000021201618161C0E90043FFF75DF9002887
:1051700003D0BDE81040FBF76CBC10BD0020004020
:10518000C002002470B518480021164C042300F119
:105190000C0C164D22158CE80E008161A614C1611D
:1051A00001624162816280E87000FFF7DBFD08B1B7
:1051B000FBF74FFC0C480021FFF7EDFB08B1FBF7B4
:1051C00048FC09480021FFF7C0FB08B1FBF741FC90
:1051D0000548FFF798FB002803D0BDE87040FBF7B7
:1051E00038BC70BD001001400C030024A0860100F3
:1051F0001848002110B5164C0C224FF4E13304601E
:10520000C0E90131C160C0E904128161C16101627C
:1052100041628162FFF7A6FD08B1FBF71AFC0D4859
:105220000021FFF7B8FB08B1FBF713FC0948002188
:10523000FFF78BFB08B1FBF70CFC0648FFF763FB9D
:10524000002803D0BDE81040FBF703BC10BD0000F0
:10525000001401409C030024FEE7FEE79E4A012360
:1052600010B59E48002192F82440012C3AD082F8D3
:105270003610018092F82540012C3CD0418082F804
:10528000371000BF92F82640012C3DD0818082F873
:10529000381000BF92F82740012C3ED0C18082F820
:1052A000391000BF92F83140012C3FD0018482F8C0
:1052B000431000BF92F82F40012C40D0A0F81010EE
:1052C00092F83040012C46D0A0F8221092F82D40E0
:1052D000012C4CD0A0F8121092F83340012C57D07A
:1052E000C1835BE00488641CA4B20480072CC1D194
:1052F00082F83630BEE74488641CA4B24480072C90
:10530000C0D182F83730BDE78488641CA4B28480A1
:10531000072CBFD182F83830BCE7C488641CA4B223
:10532000C480072CBED182F83930BBE7048C641CE2
:10533000A4B20484072CBDD182F84330BAE7048AB2
:10534000641CA4B20482072CBAD192F84140641CB8
:1053500082F84140B4E7448C641CA4B24484072C16
:10536000B4D192F84240641C82F84240AEE7448ACD
:10537000641CA4B24482072CAED192F83F40641C56
:10538000E4B282F83F40012CA6D982F83F10A3E78F
:10539000C48B641CA4B2C483072C02D082F84510CD
:1053A00001E082F8453092F82E40012C01D0818234
:1053B00005E0848A641CA4B28482072C02D082F89F
:1053C000401001E082F8403092F82A40012C01D0D0
:1053D000C18205E0C48A641CA4B2C482072C02D036
:1053E00082F83C1001E082F83C3092F82B40012C0E
:1053F00027D0018392F83240012C33D0418382F8C8
:10540000441000BF92F82C40012C34D0818382F8E4
:105410003E1000BF92F82940012C35D082F83B1095
:1054200092F82840012C39D082F83A10947F012C50
:105430003ED082F82010D47F012C43D082F8211076
:1054400010BD048B641CA4B20483072CD2D192F843
:105450003D40641CE4B282F83D40012CCAD982F878
:105460003D10C7E7448B641CA4B24483072CC9D108
:1054700082F84430C6E7848B641CA4B28483072C72
:10548000C8D182F83E30C5E70489641CA4B2048107
:10549000072CC5D182F83B300181C1E74489641CE7
:1054A000A4B24481072CC1D182F83A304181BDE7D2
:1054B0008489641CA4B28481072CBCD182F820307A
:1054C0008181B8E7C489641CA4B2C481072CB7D118
:1054D00082F82130C18110BDA405002418000024E9
:1054E000704700002DE9F047454D044689464FF0CE
:1054F000000A2868C04380070AD0414E283E306821
:1055000020F080603060FDF74FFC0746B04608E0B1
:105510000120BDE8F08700BFFDF746FCC01B022854
:1055200067D8D8F800000001F6D4206829684FF445
:10553000FE0721F47C313E0241EA00302860207AE7
:10554000A389B4F804C040022D4D2D495B1E227C76
:10555000ACF1010C1035091DA0F5007080B2521E8F
:10556000CCF3080C07EA034340EA0C00184306EAB0
:105570000262104328600868626920F0C00010438E
:1055800008600A68A06922F0200202430A60281D10
:105590000A6822F010020A6002684FF6F873E469A4
:1055A0009A4342EAC40202600868B9F1000F40F071
:1055B00010020A6011D00868B9F1010F11D040F44F
:1055C00000100860D8F80000444640F08060C8F839
:1055D0000000FDF7E9FB05460DE0086840F40020F7
:1055E000EFE740F48010ECE7FDF7DEFB401B0228FC
:1055F00001D903208DE720680001F5D5504688E7E2
:10560000284402582DE9F047454D044689464FF09D
:10561000000A2868C04380070AD0414E283E3068FF
:1056200020F080503060FDF7BFFB0746B04608E031
:105630000120BDE8F08700BFFDF7B6FBC01B0228C4
:1056400067D8D8F800008000F6D4208829684FF485
:10565000FE0721F07C713E0241EA00502860207A6A
:10566000A389B4F804C040022D4D2D495B1E227C55
:10567000ACF1010C1835091DA0F5007080B2521E66
:10568000CCF3080C07EA034340EA0C00184306EA8F
:105690000262104328600868626920F44060104389
:1056A00008600A68A06922F4007202430A60281D9B
:1056B0000A6822F480720A6002684FF6F873E4699F
:1056C0009A4342EAC40202600868B9F1000F40F44C
:1056D00080720A6011D00868B9F1010F11D040F052
:1056E00080700860D8F80000444640F08050C8F848
:1056F0000000FDF759FB05460DE0086840F4800006
:10570000EFE740F40000ECE7FDF74EFB401B0228FA
:1057100001D903208DE720688000F5D5504688E741
:105720002844025810484FF4806200214280828051
:10573000C2800281028001834183818380F83C1012
:1057400080F83D1080F8421080F83F1080F840103B
:1057500080F8441080F8451080F8411080F83E1021
:1057600080F8431070470000A4050024044908880D
:105770001E2803D2401C088000207047012070477B
:10578000980000247047FDF715BB000070B59CB071
:105790004C216846FAF7B9FE202113A8FAF7B5FEA6
:1057A0000220FDF7ADFB214800242149026842F4A4
:1057B0004042026002680A6842F001020A60096819
:1057C00001F001011B9101688904FCD502200990B8
:1057D0000121C20378231825CDE900120AAA0C265C
:1057E00082E80B00CDE90D05CDE910640F90684605
:1057F0001294FEF77FFB08B172B6FEE740201A90C4
:1058000008230501CDE9163013ABCDE918053F217A
:10581000032283E81600042113A8FEF75BF9002891
:1058200001D072B6FEE71CB070BD000018480258E7
:105830002C0400582E48F0B52E4A016841F470013E
:105840000160106800F00F00072804D2106820F0F3
:105850000F00C01D106028490020274C10340B6831
:10586000264D43F001030B6020600B682B400B605A
:10587000136803F00F03072B04D9136823F00F03F9
:10588000DB1D13601C4C1E4A18341E4B261D371D91
:105890002060194C1C4D28343060261D3860371D9F
:1058A00023603B1D35601C1D3A60251D2E1D1860B0
:1058B000331D22602860326018600A680E4B134C5A
:1058C00022F4802260330A60186020686FF30F00B2
:1058D000B0F1005F03D20E490120C1F8080143F284
:1058E000D2000C49024B4A03803B08601A60F0BDAD
:1058F00088ED00E000200052004402587FEDF6EAF7
:1059000080020101000202020000FF010010005CA1
:10591000008000510040005210B5FFF703FF0D4812
:105920000D490068026842F01002026008680168D0
:1059300041F0100101600948FEF7C6FD08491E222A
:105940000448FFF711FBBDE8104005491E2202483C
:10595000FFF70ABB0C0300249C030024C0020024B0
:10596000006000240148FEF7F0BD0000C0020024E2
:105970002DE9F047274B4FF0804A274D02689842A7
:10598000264E274F274C09D0504507D0A84205D0B6
:10599000B04203D0B84201D0A04205D1D1F804C032
:1059A00022F070024CEA0202DFF87CC0DFF87C8053
:1059B0009842DFF87C900FD050450DD0A8420BD014
:1059C000B04209D0B84207D0A04205D0604503D00C
:1059D000404501D0484503D1CD6822F440722A43A6
:1059E0004D6922F080022A43026098428A68C262AE
:1059F0000A68826207D0A04205D0604503D04045C6
:105A000001D0484501D10969016301214161BDE827
:105A1000F087000000000140000400400008004042
:105A2000000C0040000401400040014000440140DF
:105A30000048014030B5416EB9B101680D4B03F12A
:105A400008048A688968C2F34262490F5D5C615C40
:105A50002D01B5FBF1F1A0F86A10995CA25C090177
:105A6000B1FBF2F1A0F8681030BD0121A0F86A1076
:105A7000F8E700000C69000890F82810C90706D064
:105A80000168C36A4A6822F400321A434A6090F8F7
:105A90002810890706D50168036B4A6822F4803212
:105AA0001A434A6090F82810490706D50168436BED
:105AB0004A6822F480221A434A6090F828100907A5
:105AC00006D50168836B4A6822F400421A434A6093
:105AD00090F82810C90606D50168C36B8A6822F4BD
